:02000000C22D0F
:10000800FF00030E83018316A8000A08A9008A01CD
:1000180070088312A3007408A2007808A1007C0865
:10002800A0008B10A50A0930F4002508F0009E20D6
:100038007808F0007008A5002308F0002208F400F2
:100048002108F8002008FC00831629088A00280ED9
:080058008300FF0E7F0E09007A
:0600600000000000080092
:100066000F3083120313FC004730FD00FD0B3928C7
:0A007600FC0B392800000000080010
:0E008000213083120313FD00FD0B44280800FD
:10008E0083160313BA1B4E2883128613502883122D
:10009E00861783163A1B5628831206135828831286
:1000AE0006178316BA1A5E288312861260288312E8
:1000BE00861683163A1A6628831206126828831249
:1000CE000616D2186C2805146D28051085143020DC
:1000DE0085108316BA197628831286137828831210
:1000EE00861783163A197E288312061380288312E8
:1000FE0006178316BA18862883128612882883124A
:10010E00861683163A188E288312061290288312AA
:10011E000616D2189428051495280510851430203B
:0E012E008510D21C9C2833209D2840200800FC
:10013C0083120313F8010830FC00700DF80D7408DD
:10014C00F8020318AB28F8070310F00DFC0BA328DA
:02015C00080099
:10015E0083120313D21083163908BA004720D21423
:02016E00080087
:100170008316031336088312A40010308316BA00C6
:100180004720250883163706031DF6288312861C90
:10019000CA28F628051EDD284A08031DDD28C40AE2
:1001A000A40A83163508F40083122408F0009E2068
:1001B0007808F0007008A400CA0A051AE3284A0863
:1001C0000319E328CA01303024078316B900AF2091
:1001D00010308316BA0047206830FC00E430FD0080
:1001E000FD0BF028FC0BF0280000C1288312861CB0
:0601F000FA28F6280800C1
:1001F600063084000008000883120313F000F01193
:06020600700880000800F2
:10020C00063084000008000883120313F0007011FC
:06021C00700880000800DC
:100222002329803083160313B5003629C030B50068
:1002320036299430B5003629D430B50036298030BD
:10024200B5003629831603133508013A031912291A
:100252003508023A031917293508033A03191A29EE
:100262003508043A03191D2920293603F000350800
:10027200F0077008B5007008BA004720D210831644
:10028200B8013808370784000008031951293808D3
:10029200370784000008B900AF208316B80A422944
:0602A2008312D2140800D3
:0E02A8008312031349088A00480882000800E8
:1002B600013083160313B3000030B4008030B10060
:1002C600B201310832040319902930203020302041
:1002D60030200621831606113020302031083005E3
:1002E600F00000303205F1007008710403197D2911
:1002F60086158029FB2083168611302030200615AE
:100306008312521006198B29521C8A298B2985299A
:100316008316B20CB10CB2136429B301B4013020B8
:100326003020062183160611302030208615302015
:100336003020302030200615831252100619A729C6
:10034600521CA629A729A1298316B301B40130207E
:1003560030208312861DB1298316331430203020B5
:100366003020302030203020302030203020302007
:1003760030203020302030203020302006218316D7
:0E0386000611FB20831686113308F0000800D4
:10039400DC29803083160313B000EF29C030B0008D
:1003A400EF299430B000EF29D430B000EF29803029
:1003B400B000EF29831603133008013A0319CB293F
:1003C4003008023A0319D0293008033A0319D32913
:1003D4003008043A0319D629D9293103F00030082A
:1003E400F0077008B0008312D21470088316BA00A4
:1003F4004720D21083163208BA004720D2140800CE
:10040400103083160313BA0047200A308316B50050
:10041400320884000F300005B6003008B700B82059
:10042400831632088400F0300005F000831224089B
:10043400F004831632088400700880003108B50087
:10044400320884000008F1007108B600B60CB61337
:10045400B60CB613B60CB613B60CB6133008B70008
:10046400B8208316320884000F300005F20083128E
:100474002408F000F00D7010F00D7010F00D7010E5
:10048400F00D70107208F0048316320884007008AE
:0404940080000800DC
:10049800013083160313BA0047200C308316BA00C4
:1004A800472002308316B5000430B6002B30B70061
:1004B800112101308316B5000630B6002630B7008A
:0404C80011210800F6
:1004CC00831603138615302030200615302030207B
:1004DC00FB2083168611302030200621831606114E
:0204EC00080006
:1004EE00FB20831686113020302006158312521001
:1004FE000619852A521C842A852A7F2A302030200C
:10050E0030203020302030203020302083168615C9
:06051E003020302008002F
:1005240083160313AC01AD018030AE000030AF0080
:100534002E082F040319BC2A3020302086153020C1
:1005440030200615831252100619AC2A521CAB2A0D
:10055400AC2AA62A861DB32A83162E08AC042F08BB
:10056400AD0430203020062183160611AF0CAE0CEA
:10057400AF139A2A8615302030202A082B04031939
:10058400C62AFB20831686113020302006158312DC
:1005940052100619D12A521CD02AD12ACB2A302033
:1005A400302006218316061130203020FB208316CC
:0805B40086112C08F00008007C
:1005BC00143083160313BA00472083162A08B90097
:1005CC00B90CB913B90CB913B90CB913B90CB913DB
:1005DC003030B907AF200F3083162A05B900303000
:0605EC00B907AF20080072
:1005F2000F3083160313BA0047202508013A031D62
:10060200062C01308316B0000B30B1000F3083127C
:1006120047058316B2003030B207CA210A3083166A
:10062200B5000F30831247058316B6000130B700BC
:10063200B820F0304705F00024087004F10071087A
:10064200C70006308316B5007108B600B60CB613A3
:10065200B60CB613B60CB613B60CB6130130B7000F
:10066200B8200F30C7052408F000F00D7010F00D0F
:100672007010F00D7010F00D70107008C70401308A
:100682008316B0000630B1004230B20002220130BF
:10069200B00083122408033C0318532B0230831644
:1006A200AA00562B83160330AA002A08B100413053
:1006B200B20002220230B0000F30B1000F308312BC
:1006C20043058316B2003030B207CA210A308316BE
:1006D200B5000F30831243058316B6000130B70010
:1006E200B820F0304305F00024087004F1007108CE
:1006F200C3000A308316B5007108B600B60CB613F3
:10070200B60CB613B60CB613B60CB6130130B7005E
:10071200B8200F30C3052408F000F00D7010F00D62
:100722007010F00D7010F00D70107008C3041030CE
:100732008316BA00472010308316BA0047200130D2
:100742008316B00083122408023C0318AC2B01303C
:100752008316AB00AF2B83160230AB002B08B1001F
:100762004630B20002220130B0000430B100453000
:10077200B200022283122508013A031D022C861CB4
:10078200C52B0130C400022C051ED72B4A08031DBD
:10079200D72BC40A0730F4006F08F0009E207808B7
:1007A200F0007008EF00700AEF00CA0A051ADD2B8C
:1007B2004A080319DD2BCA0102308316B500013045
:1007C200B600013083126F02F300F401031CF4033C
:1007D2007308F0007408F100F00DF10D7010F00DC7
:1007E200F10D70107008533E8316B70011211A30B4
:1007F200FC00F830FD00FD0BFC2BFC0BFC2B000079
:10080200BB2B861C052C022CFE2A44080319392C0A
:10081200C401A5016622D030B0005B21B0015B218A
:10082200831247088316B0005B21831242088316A5
:10083200B0005B21831241088316B0005B21831252
:100842006F088316B0005B21831245088316B0003F
:100852005B21831246088316B0005B218312430892
:100862008316B0005B2177220C30BA0047205A2D44
:1008720001308316BA00472001308316B5000230DA
:10088200B6003730B700112102308316B0000630AF
:10089200B1003A30B200CA218316A70107302702FD
:1008A2000318592D0130B0000930B100313027074B
:1008B200B200CA2102308316B0000430B10027080A
:1008C200A03E84000008F1007108B200B20CB2131D
:1008D200B20CB213B20CB213B20CB2133030B20774
:1008E200CA2183162708A03E84000F300005B900F4
:1008F2003030B907AF2014308316BA004720831670
:1009020027084B3E840070300005B900B90CB913BA
:10091200B90CB913B90CB913B90CB9133030B90702
:10092200AF20831627084B3E84000F300005B90024
:100932003030B907AF20023083162707F100F201E9
:100942000318F20A00307206031DAA2C71088312E2
:100952002506031D4F2D02308316B0000B30B10067
:1009620027084B3E84000030801B0130B20030303B
:10097200B207CA2102308316B50027084B3E840015
:100982000030801B0130B60002302707B700B820C4
:10099200831627084B3EF300730884007F3000055E
:1009A200F2000730F10083122408F00071080319E5
:1009B200DE2CF00D7010FF3ED82C7208F004730884
:1009C20084007008800010308316BA00472010306F
:1009D2008316BA0047200A308316B50027084B3E1B
:1009E20084000F300005B60002302707B700B82098
:1009F200831627084B3EF10071088400F030000591
:100A0200F00083122408F00471088400700880004A
:100A120006308316B50027084B3E8400703000056F
:100A2200B600B60CB613B60CB613B60CB613B60CAB
:100A3200B61302302707B700B820831627084B3EAB
:100A4200F300730884008F300005F200831224083B
:100A5200F000F00D7010F00D7010F00D7010F00D30
:100A620070107208F004730884007008800002306D
:100A720083162707B00083122408033C0318452D70
:100A820002308316AC00482D83160330AC002C08CC
:100A9200B1002708A03EB20002229C2C8312440817
:100AA2000319562DC401A5014C228316A70A4F2C07
:040AB2004C220800CA
:100AB6008316031385100510061286120613861375
:100AC600831285100510861306138612061233202C
:100AD60033203320861606168514302085103320E1
:100AE600851430208510332085143020851033205E
:100AF6000612851430208510332085143020851089
:100B06008612861785143020851033208613061624
:100B16008514302085100612851430208510332068
:100B26008514302085100616851430208510332054
:100B360006128514302085108617061786160616A7
:0C0B46008514302085103320D2140800E4
:100B52008316031306158615831252100619B52D36
:0A0B6200521CB42DB52DAF2D080074
:100B6C0054218A110A128000840AC80A0319C90A7E
:080B7C00F003031DB62D080073
:100B840083120313A401A5013A30A6002030A70064
:100B94002030A8003A30A900AA012C30AB00203044
:100BA400AC002030AD002030AE002F30AF0020303C
:100BB400B0002030B1002F30B2003230B3003030FA
:100BC400B400B501B6014130B7006C30B8006130F3
:100BD400B9007230BA006D30BB006530BC00203003
:100BE400BD002030BE003A30BF00C001FF30860097
:100BF400FB3083168500FF308600073083129F0088
:100C04004430D3006F30D4006D30D500D60153305A
:100C1400D7006530D8006730D900DA015430DB00E2
:100C24006530DC007230DD00DE015130DF007530EC
:100C3400E0006130E100E2015130E3007530E4008E
:100C44006930E500E6015330E7006530E8007830AC
:100C5400E900EA015330EB006130EC006230ED0052
:100C6400EE018316A701073027020318432E270835
:100C7400A03E8400800127084B3E84008001A70A1F
:100C8400352EA9255B258B170B170B164C226622D4
:100C9400D030B0005B21B0015B216622D130B000BE
:100CA4005B210130AA000030AB009222700883124D
:100CB400C70001308316AA000030AB0092227008EE
:100CC4008312C20001308316AA000030AB009222C6
:100CD40070088312C10001308316AA000030AB00F3
:100CE400922270088312EF0001308316AA000030AC
:100CF400AB00922270088312C50001308316AA004B
:100D04000030AB00922270088312C6008316AA0139
:100D1400AB01922270088312C30077220230B5001F
:100D24000130B600013083126F02F300F401031C9A
:100D3400F4037308F0007408F100F00DF10D701065
:100D4400F00DF10D70107008533E8316B700112199
:100D540014308316BA00472045088316AA00DE2201
:100D640046088316AA00DE2214308316BA004720F0
:100D740014308316BA00472043088316AA00DE22E3
:100D840001308316B0000430B10083124108831689
:100D9400B200B20CB213B20CB213B20CB213B20C56
:100DA400B2133030B207CA210F3041058316B9009F
:100DB4003030B907AF2042088316AA00DE22470864
:100DC4008316AA00DE228316A70107302702031820
:100DD400072F2708A03E8400831241080006031D44
:100DE400042F4708031D042F80304204F1008316AA
:100DF40027084B3E840071080006031D042F0130B0
:100E04008312B6008316A70AE72E83123608031945
:100E14004E2FB60A05150230FB00D430FC00853095
:100E2400FD00FD0B132FFC0B132FFB0B132F0511D0
:100E34000230FB006C30FC009F30FD00FD0B202FC6
:100E4400FC0B202FFB0B202F0000000005150230A7
:100E5400FB00D430FC008530FD00FD0B2F2FFC0B74
:100E64002F2FFB0B2F2F05110530FB00C530FC0085
:100E7400C230FD00FD0B3C2FFC0B3C2FFB0B3C2F29
:100E840000002508031D4B2F86184B2F051A4B2FE6
:100E94004D2FA501B601492E25080319522FF92219
:100EA4000530FB000F30FC00F130FD00FD0B582F26
:0C0EB400FC0B582FFB0B582F492E5F2F12
:02400E006A2125
:00000001FF
